:020000040800F2
:1000000037F900200D020008150200081702000849
:10001000190200081B0200081D0200080000000071
:100020000000000000000000000000001F020008A7
:100030002102000800000000230200082502000839
:1000400027020008270200082702000827020008EC
:1000500027020008270200082702000827020008DC
:1000600027020008270200082702000827020008CC
:1000700027020008270200082702000827020008BC
:1000800027020008270200082702000827020008AC
:10009000270200082702000827020008992200080A
:1000A000270200082702000827020008270200088C
:1000B00027020008B3220008CD220008270200080A
:1000C000270200082702000827020008270200086C
:1000D00027020008712200082702000827020008F2
:1000E000270200082702000827020008270200084C
:1000F000270200082702000827020008270200083C
:10010000270200082702000827020008270200082B
:10011000270200082702000827020008270200081B
:10012000270200082702000827020008270200080B
:1001300000F002F800F040F80AA090E8000C8244B9
:100140008344AAF10107DA4501D100F035F8AFF296
:10015000090EBAE80F0013F0010F18BFFB1A43F0A5
:10016000010318471891000038910000103A24BF8D
:1001700078C878C1FAD8520724BF30C830C144BF0C
:1001800004680C607047000000230024002500264E
:10019000103A28BF78C1FBD8520728BF30C148BFEA
:1001A0000B6070471FB59DE8030008F089FF08F059
:1001B0005EFF1FBD10B510BD08F0DEFF1146FFF752
:1001C000F1FF02F051F808F0FCFF03B4FFF7F2FF73
:1001D00003BC09F02DF800000B49D1F800C04A68B3
:1001E0005CF8043B1068184442F8040B8C4528BFA7
:1001F000A1F1DC0C8A4228BFA1F1DC02C1F800C0E9
:100200004A6020F000407047D038002009488047FD
:1002100009480047FEE7FEE7FEE7FEE7FEE7FEE7E8
:10022000FEE7FEE7FEE7FEE704480549054A064B00
:10023000704700002B030008310100083839002006
:1002400037F9002036590020385900200CB500201D
:10025000019000906C48006840F480306A49086062
:1002600000BF6948006800F4003000900198401C0D
:100270000190009818B90198B0F5A06FF1D16248CB
:10028000006800F4003010B10120009001E000206F
:1002900000900098012843D15C48006840F01000AD
:1002A0005A4908600846006820F0030008600846C4
:1002B000006840F0020008605348406852494860B6
:1002C0000846406848600846406840F480604860DE
:1002D0000846406820F47C1048600846406840F4B6
:1002E000E81048600846006840F08070086000BF71
:1002F0004548006800F000700028F9D04248406886
:1003000020F00300404948600846406840F0020081
:10031000486000BF3C48406800F00C000828F9D154
:100320000CBD10B5FFF792FF10BD10B53648006840
:1003300040F00100344908600846406834490840EC
:100340003149486008460068324908402E49086033
:100350000846006820F4802008600846406820F4C1
:10036000FE0048604FF41F008860FFF7DAFF4FF08F
:1003700000602949086010BD10B50021002000224E
:10038000214B5B6803F00C0121B1042906D0082938
:1003900028D107E0214B224C236027E01F4B204C43
:1003A000236023E0184B5B6803F47010164B5B6806
:1003B00003F48032022303EB904022B9194B4343EC
:1003C000174C23600DE0104B5B6803F4003323B13E
:1003D000144B4343124C236003E0104B4343104C37
:1003E000236003E00D4B0E4C236000BF00BF064BA3
:1003F0005B68C3F303130C4CE15C094B1B68CB40F7
:10040000074C236010BD0000001002400020024095
:100410000000FFF8FFFFF6FE08ED00E000127A0092
:100420000000002000093D0004000020364901437F
:10043000364A1160704770B5002100230F22C4783E
:1004400004B3324C246804F4E064C4F5E064210A87
:10045000C1F10403CA40447804FA03F184781440DB
:10046000214309012A4C0678A155047804F01F05A0
:100470000124AC4005786D11AD0005F1E025C5F80B
:10048000004109E0047804F01F050124AC40214D2F
:100490000678761145F8264070BD1F4A0A4002438F
:1004A0001A4B1B1F1A60704739B1184A121D126887
:1004B0000243164B1B1D1A6006E0144A121D1268F7
:1004C0008243124B1B1D1A607047042808D14FF05D
:1004D000E021096941F004014FF0E022116107E0D9
:1004E0004FF0E021096921F004014FF0E022116191
:1004F0007047012080F3108800BF70470248001D3C
:1005000002490860704700000000FA050CED00E0A9
:1005100000E400E080E100E080FFFF1F002044498C
:100520000860091D0860091D0860091D0860414830
:100530003F4914310860704700213D498279002A03
:100540003AD00A46126803689A430B461A600A1D9D
:10055000126803689A430B1D1A60027911440A68F5
:1005600003681A430A60324A0832126803689A43E1
:100570002F4B08331A601A1D126803689A432C4BDC
:100580000C331A604279102A0ED11A1F12680368C0
:100590001A43274B08331A601A1D126803681A435E
:1005A000234B0C331A600DE02149427911440A684B
:1005B00003681A430A6005E0027911440A68036877
:1005C0009A430A6070470021016001710C2141715A
:1005D0000021817170471649103109680143144A9E
:1005E00010321160704701460020114A143212681F
:1005F0000A400AB1012000E0002070470C49143184
:1006000008607047014600200022094B1B6803EA7E
:100610000102074B14331B680B4013B10AB10120D0
:1006200000E0002070470249143108607047000064
:1006300000040140FFFF0F0010B50446CC4884427F
:1006400008D10121042000F02DFB0021042000F03E
:1006500029FB46E0C748844208D10121082000F068
:1006600021FB0021082000F01DFB3AE0C248844233
:1006700008D10121102000F015FB0021102000F00E
:1006800011FB2EE0BD48844208D10121202000F05A
:1006900009FB0021202000F005FB22E0B84884423D
:1006A00008D10121402000F0FDFA0021402000F097
:1006B000F9FA16E0B348844208D10121802000F005
:1006C000F1FA0021802000F0EDFA0AE0AE48844201
:1006D00007D10121801500F0E5FA0021A01500F0F6
:1006E000E1FA10BD10B50121084600F0DBFA002147
:1006F000012000F0D7FA10BD2DE9F0410246002597
:100700000026002000230024002791F803C00CF0ED
:100710000F0591F803C00CF0100CBCF1000F03D0D2
:1007200091F802C04CEA050591F800C0BCF1000F39
:1007300031D0146800202BE04FF0010C0CFA00F3CC
:10074000B1F800C00CEA03069E4220D183004FF0AE
:100750000F0C0CFA03F7BC4305FA03FC4CEA040443
:1007600091F803C0BCF1280F06D14FF0010C0CFA30
:1007700000FCC2F814C00AE091F803C0BCF1480FB5
:1007800005D14FF0010C0CFA00FCC2F810C0401C5F
:100790000828D1D31460B1F800C0BCF1FF0F34DDDC
:1007A000546800202EE000F1080C4FF0010808FA10
:1007B0000CF3B1F800C00CEA03069E4221D183007D
:1007C0004FF00F0C0CFA03F7BC4305FA03FC4CEA9C
:1007D000040491F803C0BCF1280F05D100F1080C06
:1007E00008FA0CF8C2F8148091F803C0BCF1480F65
:1007F00007D100F1080C4FF0010808FA0CF8C2F814
:100800001080401C0828CED35460BDE8F0814FF61C
:10081000FF710180022181700421C170704702467E
:10082000002093680B400BB1012000E000207047CE
:100830000146886880B2704702460020D3680B40AA
:100840000BB1012000E0002070470146C86880B26B
:10085000704701617047416170470AB1016100E072
:1008600041617047C16070474FF480320A43826132
:100870008161826182698269704702460020434B30
:1008800018684FF68073184040EA021008433F4B47
:10089000186070473E49C8617047F0B50A460023AA
:1008A00000240021002500F00046B6F1004F02D1DF
:1008B000364EF16901E0354E7168C0F3034583B2ED
:1008C00000F44016B6F5401F08D121F070612F4E9C
:1008D000766826F070662D4F7E6012E000F4801678
:1008E000B6F5801F06D1032606FA05F4A14341F0B0
:1008F000706106E0460D360103FA06F6B14341F099
:10090000706122B1460D360103FA06F6314300F05C
:100910000046B6F1004F02D11C4EF16101E01B4EC2
:100920007160F0BD30B500228B071C0F0F2303FA56
:1009300004F2164B08338C1053F824309343134CB5
:1009400008348D1044F8253023468C1053F8243099
:100950008C07240F00FA04F423430C4C08348D1048
:1009600044F8253030BD0A49DC310860704700008A
:1009700000080140000C014000100140001401403B
:1009800000180140001C014000200140000001400F
:1009900000002042DF48006840F00100DD490860A7
:1009A00008464068DC490840DA4948600846006863
:1009B000DA490840D74908600846006820F48020DA
:1009C00008600846406820F4FE0048604FF41F00AD
:1009D00088607047CF49096821F48031CD4A1160A1
:1009E0001146096821F480211160B0F5803F03D0E1
:1009F000B0F5802F0ED106E0C649096841F4803178
:100A0000C44A116007E0C349096841F4A021C14A02
:100A1000116000E000BF00BF704710B50146002222
:100A2000002300204A11012A02D1BA4C236806E0B3
:100A3000022A02D1B74C236A01E0B64C636A01F086
:100A40001F02012494401C400CB1012000E0002052
:100A500010BD38B5002000900024002500BF3120D3
:100A6000FFF7DBFF05460098401C00900098B0F5AA
:100A7000A06F01D0002DF2D03120FFF7CEFF08B1DA
:100A8000012400E00024204638BD01460020A14A90
:100A9000106820F0F80040EAC10010607047A049DB
:100AA00008607047024600209A4B586820F47C107A
:100AB00042EA01031843974B58607047984908660B
:100AC000704701460020934A506820F00300084315
:100AD000506070478F48406800F00C007047014636
:100AE00000208C4A506820F0F000084350607047A6
:100AF00001460020874A506820F4E06008435060B7
:100B0000704701460020834A506820F4605040EA54
:100B1000C1005060704729B17E4A527A02437D4B32
:100B20005A7204E07B4A527A82437A4B5A72704777
:100B30007B49D8310860704701460020754A5068EB
:100B400020F440400843506070470021714A203231
:100B50001170704A82F82010012802D004280AD1AE
:100B600004E001216B4A2032117005E00521694A39
:100B70002032117000E000BF00BF70476949086073
:100B800070476449096A0143624A116270476549C6
:100B900044390860704730B500210022002400234A
:100BA0005C4D6D6805F00C0121B1042905D00829C0
:100BB00023D105E05C4D056022E05B4D05601FE040
:100BC000544D6D6805F47012524D6D6805F4803413
:100BD000022505EB92421CB9544D554305600BE0CC
:100BE0004C4D6D6805F400351DB1504D5543056001
:100BF00002E04D4D5543056002E04B4D056000BFDE
:100C000000BF444D6D6805F0F0010909484D6B5C6B
:100C10000568DD4045603F4D6D6805F4E061090AF7
:100C2000434D6B5C4568DD4085603A4D6D6805F469
:100C30006051C90A3E4D6B5C4568DD40C560354D6D
:100C40006D6805F44041890B3A4D6B5CC568B5FB96
:100C5000F3F5056130BD29B12E4A526902432D4B8F
:100C60005A6104E02B4A526982432A4B5A61704709
:100C700029B1284A92690243264B9A6104E0254A29
:100C800092698243234B9A61704729B1214AD26904
:100C90000243204BDA6104E01E4AD26982431D4BB5
:100CA000DA61704729B11B4AD2680243194BDA60F6
:100CB00004E0184AD2688243164BDA60704729B1C3
:100CC000144A12690243134B1A6104E0114A126973
:100CD0008243104B1A6170471249403908607047CF
:100CE0000F49C86470470B49C87170470948406A8A
:100CF00040F0807007494862704701460020054A6D
:100D000092680A400AB1012000E0002070470149C2
:100D100088727047001002400000FFF8FFFFF6FEE7
:100D2000000042428004424200127A0000093D0065
:100D3000140000202400002010B50446BE48844260
:100D400008D101218014FFF7ADFF0021A014FFF7A7
:100D5000A9FF16E0B948844208D101210014FFF729
:100D6000AEFF00212014FFF7AAFF0AE0B448844236
:100D700007D10121C013FFF7A2FF0021E013FFF705
:100D80009EFF10BD10B50022028802F441520B886C
:100D90004C8823438C882343CC8823430C892343EA
:100DA0004C8923438C892343CC8923431A430280F3
:100DB000838B4FF2FF74234083830B8A038210BD21
:100DC0002DE9F04F85B005460C464FF0000902278B
:100DD0004FF000084FF0010B0026B246A88B4FF2EF
:100DE00040010840A88302202884B5F81C90A06820
:100DF000022801D100BF38E0A08810B94FF0010BE4
:100E000001E04FF0020B8D48854200D100E000BFA9
:100E10006846FFF7C0FEDDF800A0E088B0F5007F6F
:100E20000AD14FEA1A2000EB80004000A168B0FB15
:100E3000F1F0401D86B20BE04FEA4B10BAFBF0F028
:100E400000EB80004000A168B0FBF1F0401D86B2CD
:100E50000A20B6FBF0F606F00108A6EB0800C0F386
:100E60004F074FF6FF7000EA0828022F01DBFF2F23
:100E700002DD02274FF00008E08840EA080038430E
:100E80002884A088A18908436188084321880843F1
:100E900040F4006040EA0909A5F81C9005B0BDE8DF
:100EA000F08F0021018041808180C18001814181DA
:100EB0008181C18107210182704700210180418029
:100EC0008180C1800221816000218181704721B130
:100ED000028842F04002028004E002884FF6BF73AD
:100EE0001A400280704721B1828B42F48062828373
:100EF00004E0828B4FF6FF331A408283704730B58F
:100F0000002400230C110125A540ABB21AB185883D
:100F10001D43858002E085889D43858030BD1AB1E0
:100F200083880B43838002E083888B4383807047F0
:100F3000818170470146888970474FF6FF62914270
:100F400004D0028842F48072028004E002884FF6E6
:100F5000FF631A400280704721B1828842F0040288
:100F6000828004E082884FF6FB731A4082807047CB
:100F700002884FF2FF731A40028002880A430280FF
:100F80007047018841F480510180704721B1028887
:100F900042F40052028004E002884DF6FF731A40CA
:100FA0000280704702460020012901D0108B00E02A
:100FB000908A70470146088A7047B1F5804F04D186
:100FC000028842F48042028004E002884BF6FF73FC
:100FD0001A40028070470246002013890B400BB173
:100FE000012000E000207047CA4302817047F0B53D
:100FF0000246002000240023002501F00F070126EF
:10100000BE40B4B20B1101269E40B3B2968806EAE8
:1010100003051689264016B10DB1012000E000201D
:10102000F0BD10B5002201F00F040123A3409AB2D5
:10103000D343038110BD0000003001400038004060
:10104000003C004010B50446FE48844208D101210E
:10105000C014FFF727FE0021E014FFF723FEC4E0D1
:10106000B4F1804F08D101210846FFF728FE002186
:101070000120FFF724FEB8E0F348844208D10121A3
:101080000220FFF71CFE00210220FFF718FEACE053
:10109000EE48844208D101210420FFF710FE002110
:1010A0000420FFF70CFEA0E0E948844208D10121AA
:1010B0000820FFF704FE00210820FFF700FE94E05F
:1010C000E448844208D101211020FFF7F8FD0021F7
:1010D0001020FFF7F4FD88E0DF48844208D10121A9
:1010E0002020FFF7ECFD00212020FFF7E8FD7CE049
:1010F000DA48844208D101214014FFF7D3FD0021D2
:101100006014FFF7CFFD70E0D548844209D101217A
:10111000C804FFF7C7FD00214FF40020FFF7C2FD10
:1011200063E0D048844209D101210805FFF7BAFDE8
:1011300000214FF48010FFF7B5FD56E0CA48844205
:1011400009D101214805FFF7ADFD00214FF4001042
:10115000FFF7A8FD49E0C548844208D1012140209D
:10116000FFF7ADFD00214020FFF7A9FD3DE0C0489D
:10117000844208D101218020FFF7A1FD00218020B9
:10118000FFF79DFD31E0BB48844208D10121801565
:10119000FFF795FD0021A015FFF791FD25E0B6486A
:1011A000844209D101210804FFF77CFD00214FF49E
:1011B0008030FFF777FD18E0B048844209D1012163
:1011C0004804FFF76FFD00214FF40030FFF76AFD80
:1011D0000BE0AB48844208D101218804FFF762FD8F
:1011E00000214FF48020FFF75DFD10BD0022028832
:1011F000944B98420ED0994B98420BD0B0F1804F4F
:1012000008D0914B984205D0904B984202D0904B19
:10121000984204D14FF68F731A404B881A438D4B76
:10122000984207D08C4B984204D04FF6FF431A40A7
:10123000CB881A4302808B8883850B880385814B7A
:1012400098420BD0854B984208D08B4B984205D0E2
:101250008A4B984202D08A4B984201D10B7A03867E
:1012600001238382704770B5002400220023058C7F
:101270004FF6FE7635400584028C8388048B4FF64A
:101280008F752C40B51E2C400D882C43751E2A40AE
:101290000D892A434D882A436A4DA8420BD06F4DD1
:1012A000A84208D0744DA84205D0744DA84202D07F
:1012B000734DA84213D14FF6F7752A404D892A4342
:1012C0004FF6FB752A408D882A434FF6FF652B4069
:1012D0004FF6FF552B408D892B43CD892B438380BF
:1012E0000483CD888586028470BD70B500240022F9
:1012F0000023058C4FF6EF7635400584028C8388F9
:10130000048B48F6FF752C404FF6FF452C400D88A6
:101310004FF6FF7606EA05252C434FF6DF752A4087
:101320000D8906EA05152A434D8806EA05152A4364
:10133000444DA84202D0494DA8421DD14FF67F75B9
:101340002A404D894FF6FF7606EA05152A434FF6E7
:10135000BF752A408D8806EA05152A434FF6FF35EA
:101360002B404FF2FF752B408D8906EA85052B43F4
:10137000CD8906EA85052B4383800483CD880587C4
:10138000028470BD70B5002400220023058C4FF646
:10139000FF6635400584028C8388848B4FF68F75F9
:1013A0002C404FF6FC752C400D882C434FF6FF5512
:1013B0002A400D894FF6FF7606EA05252A434D8817
:1013C00006EA05252A431F4DA84202D0234DA84214
:1013D0001DD14FF2FF752A404D894FF6FF7606EA80
:1013E00005252A434FF6FF352A408D8806EA052554
:1013F0002A434EF6FF752B404DF6FF752B408D8925
:1014000006EA05152B43CD8906EA05152B43838093
:101410008483CD888587028470BD70B50022002347
:101420000024058C4EF6FF7635400584038C8488B5
:10143000828B48F6FF752A404FF6FF452A400D88FB
:1014400020E00000002C01400004004000080040A3
:10145000000C004000100040001400400034014027
:10146000004C014000500140005401400018004071
:10147000001C0040002000400040014000440140AA
:10148000004801404FF6FF7606EA05252A434DF64F
:10149000FF752B400D8906EA05352B434D8806EA7A
:1014A00005352B43FA4DA84202D0FA4DA84208D187
:1014B0004BF6FF752C408D894FF6FF7606EA8515B1
:1014C0002C4384808283CD88A0F84050038470BD73
:1014D000828B4FF2FF331A408283828B4FF6FF7369
:1014E00003EA01231A4382837047F0B50C46154680
:1014F000002200210026078C4EF6FF7C07EA0C072D
:101500000784828B018C4FF6FF7707EA043640F69A
:10151000FF473A404FF6FF7707EA05273A434FF671
:10152000FF7707EA03373A43D94FB8420ED0D94F75
:10153000B8420BD0B0F1804F08D0D74FB84205D099
:10154000D64FB84202D0D64FB84206D14DF6FF77FB
:10155000394046F48057394305E047F6FF57394094
:1015600044F48057394382830184F0BD828B4FF667
:10157000F3731A408283828B0A4382837047F0B5EB
:101580000C461546002200210026078C4FF6FF6C02
:1015900007EA0C070784828B018C4FF6FF7707EA76
:1015A00004264FF60C773A404FF6FF7707EA031709
:1015B0002F433A43B64FB8420ED0B64FB8420BD085
:1015C000B0F1804F08D0B44FB84205D0B34FB84205
:1015D00002D0B34FB84206D14FF6FF57394046F418
:1015E0008077394305E04FF2FF57394044F4807764
:1015F000394382830184F0BD028B4FF2FF331A40DE
:101600000283028B4FF6FF7303EA01231A4302831E
:101610007047F0B50C461546002200210026078CC5
:101620004FF6EF7C07EA0C070784028B018C4FF61C
:10163000FF7707EA041640F6FF473A404FF6FF7778
:1016400007EA03373A434FF6FF7707EA05273A439D
:101650008F4FB8420ED08F4FB8420BD0B0F1804FB1
:1016600008D08D4FB84205D08C4FB84202D08C4F75
:10167000B84206D14FF6DF77394046F010073943BC
:1016800005E04FF65F77394044F010073943028395
:101690000184F0BD028B4FF6F3731A400283028B74
:1016A0000A4302837047F0B50C461546002200211C
:1016B000068C4FF6FE773E400684028B018C4FF677
:1016C0000C7632407E1C06EA03162E433243704EDF
:1016D000B0420ED06F4EB0420BD0B0F1804F08D068
:1016E0006D4EB04205D06D4EB04202D06C4EB0424D
:1016F00006D14FF6FD76314044F00106314305E056
:101700004FF6F576314044F00106314302830184FF
:10171000F0BD70B505460C465D4885420ED05D486B
:1017200085420BD0B5F1804F08D05B48854205D08B
:101730005A48854202D05A48854200D100E000BF95
:10174000208850B92389A28861882846FFF7ABFF1B
:10175000E1882846FFF79EFF25E0208804280AD16B
:101760002389A28861882846FFF753FFE18828462D
:10177000FFF742FF17E0208808280AD12389A288B2
:1017800061882846FFF7FBFEE1882846FFF7EEFE5A
:1017900009E02389A28861882846FFF7A6FEE18830
:1017A0002846FFF795FE70BD2DE9F04105460C4631
:1017B00000260127608808B9022600E00026A088DC
:1017C000012801D1022700E001272088A0B9238940
:1017D000A28861882846FFF766FFE1882846FFF760
:1017E00059FF23893A4631462846FFF712FFE18820
:1017F0002846FFF701FF13E02389A2886188284665
:10180000FFF707FFE1882846FFF7F6FE23893A46EF
:1018100031462846FFF747FFE1882846FFF73AFFA1
:10182000BDE8F0810A884B881A438B881A43CB881D
:101830001A430B891A434B891A438B891A43A0F820
:10184000442070474FF6FF71818000210180C180E4
:101850004180017270470021018041808180C180F8
:10186000018141818181C1817047002101804180D6
:10187000012181800021C180018170470021018008
:1018800041808180C1800181418181817047000058
:10189000002C0140003401400004004000080040DA
:1018A000000C004021B1028842F00102028004E0F5
:1018B00002884FF6FE731A400280704731B1B0F8CB
:1018C000442042F40042A0F8442005E0B0F844204F
:1018D000C2F30E02A0F8442070471AB183890B436B
:1018E000838102E083898B438381704781827047C3
:1018F00041EA0203A0F8483070471AB183890B43CC
:10190000838102E083898B438381704701894FF68D
:10191000F8721140018170470A46002101894FF693
:101920008F73194011430181704730B504460D464D
:1019300029462046FFF7F0FF208940F0070020816C
:1019400030BD2DE9F04104460D4616461F46602D78
:1019500006D13B46012231462046FFF75AFE05E0FC
:101960003B46012231462046FFF79DFE2946204690
:10197000FFF7D2FF208940F007002081BDE8F08109
:1019800030B50C4600210189C9B24FF6FF7505EA52
:101990000325154325432943018130BD2DE9F0413D
:1019A00005460E4617469846002443463A463146B9
:1019B0002846FFF7E5FF2C894FF6F870044044F005
:1019C00007044FF68F70044044F070042C81BDE88A
:1019D000F081F0B504460D4616461F463B4632469A
:1019E00029462046FFF7CCFF208940F48040208123
:1019F000F0BD0185828270470A46002101884FF6BA
:101A00008F731940114301807047F0B50C4615469D
:101A10001E460021002200230189028B038C4FF611
:101A2000F877394021434FF6FC473A4040F201171E
:101A30003A434FF6DD773B404FF6FF7707EA06174C
:101A40002F433B43018102830384F0BD0A460021FA
:101A5000018B4FF68F7319401143018370470A467B
:101A60000021018B48F6FF7319404FF6FF7303EA1C
:101A700002231943018370470A460021818B4FF6E8
:101A80008F7319401143818370470A460021818B6F
:101A900048F6FF7319404FF6FF7303EA0223194318
:101AA0008183704721B1028842F08002028004E005
:101AB00002884FF67F731A400280704721B18288F6
:101AC00042F00402828004E082884FF6FB731A40E1
:101AD0008280704721B1828842F00802828004E04F
:101AE00082884FF6F7731A408280704721B182884E
:101AF00042F00102828004E082884FF6FE731A40B1
:101B0000828070470A460021018B4FF6F773194017
:101B10001143018370470A460021018B4FF2FF7386
:101B200019404FF6FF7303EA0223194301837047FC
:101B30000A460021818B4FF6F773194011438183C8
:101B400070470A460021818B4FF2FF7319404FF610
:101B5000FF7303EA02231943818370470A46002179
:101B6000018B4FF6FB7319401143018370470A46FE
:101B70000021018B4FF6FF3319404FF6FF7303EA44
:101B800002231943018370470A460021818B4FF6D7
:101B9000FB7319401143818370470A460021818BF2
:101BA0004FF6FF3319404FF6FF7303EA0223194340
:101BB000818370470A460021018B4FF67F731940DD
:101BC0001143018370470A460021018BC1F30E01C6
:101BD0004FF6FF7303EA02231943018370470A4655
:101BE0000021818B4FF67F73194011438183704729
:101BF0000A460021818BC1F30E014FF6FF7303EA01
:101C000002231943818370470A460021018C4FF655
:101C1000FD7319401143018470470A460021018C6D
:101C20004FF6F77319401143018470470A460021AB
:101C3000018C4FF6DF7319404FF6FF7303EA02136E
:101C40001943018470470A460021018C4FF67F73C7
:101C500019404FF6FF7303EA0213194301847047DA
:101C60000A460021018C4FF6FF5319404FF6FF73CF
:101C700003EA02231943018470470A460021018CBC
:101C80004FF2FF7319404FF6FF7303EA0223194323
:101C9000018470470A460021018C4DF6FF731940FC
:101CA0004FF6FF7303EA023319430184704730B5DE
:101CB000002301248C40A3B2048C9C430484048C34
:101CC00002FA01F5ADB22C43048430BD30B50023D7
:101CD00004248C40A3B2048C9C430484048C02FA38
:101CE00001F5ADB22C43048430BD70B5034600202D
:101CF00000241846183001258D40ACB21D8CA54338
:101D00001D8409B1082909D100EB6100056825F09F
:101D1000700505600568154305600EE00D1FC5F3ED
:101D20004E052844056825F4E045056005684FF632
:101D3000FF7606EA02263543056070BD21B10288B0
:101D400042F00202028004E002884FF6FD731A405E
:101D50000280704721B1028842F00402028004E050
:101D600002884FF6FB731A400280704721B18288C7
:101D700042F08002828004E082884FF67F731A402E
:101D80008280704702884FF6F7731A4002800288FB
:101D90000A430280704782884FF68F731A40828010
:101DA00082880A438280704702894FF6F8731A408E
:101DB000028102890A430281704702894FF67F73CC
:101DC0001A40028102890A43028170478184704768
:101DD000818570478186704701877047818770478A
:101DE000A0F84010704702884FF6FF431A40028067
:101DF00002880A43028070470146888E7047014678
:101E0000088F70470146888F70470146B1F840003F
:101E100070470146888C70470146088D704702461E
:101E20000020138A0B400BB1012000E00020704716
:101E3000CA430282704730B50246002000230024C6
:101E4000158A05EA0103958905EA010413B10CB16D
:101E5000012000E0002030BDCA430282704700002C
:101E600010B50446FB48844209D101218803FEF7DE
:101E700019FF00214FF48040FEF714FF32E0F648CE
:101E8000844209D101214804FEF719FF00214FF4D3
:101E90000030FEF714FF25E0F048844209D101210B
:101EA0008804FEF70CFF00214FF48020FEF707FFA7
:101EB00018E0EB48844209D10121C804FEF7FFFE77
:101EC00000214FF40020FEF7FAFE0BE0E5488442C3
:101ED00008D101210805FEF7F2FE00214FF4801021
:101EE000FEF7EDFE10BD2DE9F04786B005460E4623
:101EF0000024A24600BFA1460027B08900B100BF60
:101F00002F462C8A4CF6FF700440F08804432C8244
:101F1000AC894EF6F3100440B088318908437189CA
:101F200008430443AC81AC8A4FF6FF400440B089BB
:101F30000443AC8201A8FEF72EFEC648874202D1B8
:101F4000DDF810A001E0DDF80CA0A88900F4004045
:101F500040B10AEBCA0000EB0A1031684900B0FB3F
:101F6000F1F807E00AEBCA0000EB0A1031688900BB
:101F7000B0FBF1F86420B8FBF0F004012009642103
:101F800001FB1089A88900F4004040B1322000EB29
:101F9000C900B0FBF1F000F00700044308E0322074
:101FA00000EB09106421B0FBF1F000F00F000443D6
:101FB0002C8106B0BDE8F0874FF416510160002176
:101FC0008180C18001810C21418100218181704784
:101FD00010B502460020108A4FF2FF0318400B880C
:101FE0004C8823438C882343CC8823431843108296
:101FF00010BD0021018041808180C180704721B1E6
:10200000828942F40052828104E082894DF6FF7396
:102010001A4082817047F0B503460024002600254F
:10202000002040F66A17B94200D100BF1846C1F33C
:10203000421401F01F06012707FA06F5012C01D111
:102040000C3004E0022C01D1103000E014301AB141
:1020500007682F43076002E00768AF430760F0BDE1
:102060001AB1838A0B43838202E0838A8B43838283
:102070007047028A4FF6F0731A400282028A0A43BE
:102080000282704782894FF2FF731A4082818289EF
:102090000A438281704721B1828942F00202828123
:1020A00004E082894FF6FD731A4082817047028AEC
:1020B0004FF6DF731A400282028A0A430282704797
:1020C00021B1028A42F48042028204E0028A4BF685
:1020D000FF731A4002827047C1F308028280704782
:1020E00001468888C0F308007047818941F00101EA
:1020F00081817047028BD2B20283028B42EA0122B5
:1021000002837047028B02F47F420283028B0A43F0
:102110000283704721B1828A42F02002828204E069
:10212000828A4FF6DF731A408282704721B1828A19
:1021300042F01002828204E0828A4FF6EF731A4066
:102140008282704721B1828A42F00802828204E0D2
:10215000828A4FF6F7731A408282704721B18289D2
:1021600042F40042828103E08289C2F30E0282813E
:10217000704721B1828A42F40062828204E0828A3E
:102180004FF2FF731A4082827047828A4FF6FB73C8
:102190001A408282828A0A438282704721B1828AEF
:1021A00042F00202828204E0828A4FF6FD731A40F6
:1021B0008282704702460020B1F5007F00D100BF47
:1021C00013880B400BB1012000E00020704701F4A0
:1021D0000072B2F5007F00D100BFCA430280704791
:1021E00070B50246002400230025002040F66A1640
:1021F000B14200D100BFC1F3421501F01F03012617
:1022000006FA03F3012D02D19689334006E0022D30
:1022100002D1168A334001E0968A33400C1201261F
:1022200006FA04F41688344013B10CB1012000E022
:10223000002070BD10B50022002340F66A14A142B0
:1022400000D100BF0A1201249440A3B2DC430480F1
:1022500010BD00000038014000440040004800402C
:10226000004C00400050004000F037FB00BFFEE78C
:1022700010B540F225511C48FFF7B2FF58B140F2AB
:1022800025511948FFF7D6FF1748FFF729FFC4B2B9
:10229000204600F096FB10BD10B54FF48070FEF79D
:1022A000B1F928B14FF48070FEF7BDF900F096FB4C
:1022B00010BD10B501210D48FFF7BDFD28B101216A
:1022C0000A48FFF7C9FD00F0C8FB10BD10B5012199
:1022D0000748FFF7B0FD28B100F0E9FB01210448F1
:1022E000FFF7BAFD10BD00000038014000040040B7
:1022F00000080040C0F3C02179B1C0F301310329C7
:1023000003D10021F74A117007E0C0F30131F54A0B
:10231000117011460978491C1170704710B50446B8
:10232000C4F3401068B1C4F3801038B102210F200B
:1023300000F00CFF0020EC49087002E00120EA499F
:10234000087010BD10B5102000F0CFFE044601212A
:102350000F2000F0FBFE204610BDA0B0BEE1E34818
:10236000007860B10020E1490870FFF7EBFF81467B
:102370004846FFF7D3FF4846FFF7BCFF00E0ADE15A
:10238000D948007801287DD101A801F0AAFF0746AD
:102390001FB10020D4490870A0E19DF8040000F0AE
:1023A0007F000F2806D10020CF49087001A806F051
:1023B00027FD93E19DF80500A0B99DF8040000F009
:1023C0007F000D280ED19DF8170058B99DF8180010
:1023D000002807DD0020C449087001A804F0ECFBC8
:1023E00007467BE19DF8050080B99DF8040000F0E8
:1023F0007F000E280AD19DF8170038B90020BA498D
:10240000087001A804F020FE074667E19DF805006A
:1024100080B99DF8040000F07F0007280AD19DF8DC
:10242000170038B90020B049087001A806F0E6F896
:10243000074653E19DF8050018B90020AA49087025
:102440004CE19DF8040000F07F000B2850D19DF86E
:10245000050000284CDD9DF81700002848D19DF8A4
:102460000500401CA2490978884207DD9DF8050057
:10247000401C9F49087000209E4908709D480078C4
:10248000B0BB00E00DE19C4806F0ACF99B4806F0BB
:10249000BEFA4FF00008002418E09748005D68B1CC
:1024A0009748005D50B94646944850F8248050F84B
:1024B0002400801B914941F8240005E000208F4949
:1024C00041F824008C490855601CC4B28D4800783E
:1024D0008442E2DB002404E0FF208B490855601CA5
:1024E000C4B28A4800688442F6D30120814908704A
:1024F00000207D4908709DF81610854806F073FA93
:102500000546804909788D4208DA8248057080487E
:1025100080490978405C8049487100E0DEE09DF820
:102520000500401E0DF10601085C7B49497988428F
:102530004FD09DF8040000F07F00062802D101A8CA
:1025400002F0A0FD9DF8040000F07F00072807D1ED
:1025500001A803F0C6FE9DF8170008B100F038FD91
:102560009DF8040000F07F00082802D101A803F0C4
:1025700007FA9DF8040000F07F00092802D101A8A5
:1025800003F0C8F89DF8040000F07F000A2802D18B
:1025900001A803F001FC9DF8040000F07F000B2867
:1025A0000BD09DF8040000F07F000D2805D09DF8A9
:1025B000040000F07F000E2802D101A804F0B4F955
:1025C0009DF8040000F07F000C2802D101A805F05E
:1025D00030FF9DF80500401E0DF10601085C4E49D4
:1025E000497988425DD19DF8040000F07F000628FB
:1025F00011D101A802F0B3FD4748008CDFF818C1E3
:102600000090DCF818309CF814209CF81310DCF8CB
:10261000080001F069FC9DF8040000F07F00072825
:1026200004D101A803F092FE00F0D2FC9DF8040052
:1026300000F07F00082802D101A803F023FA9DF8DA
:10264000040000F07F00092804D101A803F0CDF8B0
:1026500001F07DFC9DF8040000F07F000A2802D103
:1026600001A803F006FC9DF8040000F07F000C2890
:1026700002D101A805F045FE9DF8040000F07F009E
:102680000B280BD09DF8040000F07F000D2805D02A
:102690009DF8040000F07F000E2802D101A803F08D
:1026A000C5FF1048007840B10E480078012804D1D9
:1026B00000200C49087003F02EFF1848007801280C
:1026C0000BD117480088002807DC012000F0DDFE50
:1026D00003F0A3FC002000F0D8FE00BF3FE6A0B04E
:1026E000FAE000002C0000202A0000202800002032
:1026F0006A00002067000020A0070020600600207C
:10270000902200205F000020F007002060000020E1
:10271000C01100205D000020803700202D00002027
:102720002E000020FE48007801286FD14FF49670EB
:1027300001F050FE054605B9CEE001A800F082FA8E
:10274000044614B101F03CFEC6E09DF804000628E2
:102750001ED19DF80500012812D19DF80600F1490F
:10276000497988420CD102F04CF9EE48008CED4ECC
:102770000090B369327DF17CB06801F0B5FBABE04D
:1027800001A802F0FCFB044614B101F019FEA3E01D
:102790009DF80400072807D101A803F0F5FC0446C2
:1027A00014B101F00DFE97E09DF80400082808D14F
:1027B000294601A803F052F8044614B101F000FEC6
:1027C0008AE09DF80400092814D19DF8050001282D
:1027D00008D19DF80600D3494979884202D101F019
:1027E000B6FB79E001A802F017FF044614B101F02E
:1027F000E7FD71E09DF804000A2808D101A803F064
:1028000045FA04461CB101F0DBFD65E057E09DF898
:1028100004000B283BD19DF80500012825D19DF827
:102820000600C049497988421FD1012101A805F05D
:1028300060F90446022101A805F05BF90446032172
:1028400001A805F056F90446042101A805F051F944
:102850000446052101A805F04CF90446032005F0C3
:1028600079FA94B101F0ACFD36E09DF8050001283D
:102870000BDD9DF80600AB494979884205D101A8D6
:1028800004F06CFE032005F065FA05F0F1FD9DF8FB
:1028900004000C2803D101A805F023FC04469DF890
:1028A00004000F2802D101A806F032F99DF80400B7
:1028B000102802D101A805F037FB01F081FD9A48EC
:1028C0000078012807D102210F2000F03FFC0020F2
:1028D0009549087000E000BF24E7F8B500F04AFA17
:1028E00001F0E0FE8F48407990490870002090493F
:1028F0000870FE208F4908708F49086014208F49A6
:10290000087028208E49087008208E49087003201E
:102910008D49087000208D4908708D4908608D49E7
:1029200008808D4908708D49087001208C49087015
:1029300000208C4908708C49086005F033FB8B48F7
:102940000078012800D1F8BD764B9A7C597C187C20
:1029500000F020FC01F001FBC5B200F03BFE044694
:1029600045B98348844205D1FE2000F094FC012043
:1029700000F07EFD00207F4908706B4908707E4999
:1029800008707E49087001F01BFD00207C4908702A
:102990007C4908807C49088001F048F96148008C36
:1029A000604E0090B369327DF17CB06801F09CFA12
:1029B00003F006F93046007908B9FFF790FEFFF7FB
:1029C000CCFC10B504465748007918B9204601F0F0
:1029D0001AFD02E0204601F067FD10BD5448007862
:1029E00010B90120524908707047C0F3400111B17D
:1029F0000121604A11707047C0F3802111B101219B
:102A00005D4A117070471CB508210120FDF78AFF4F
:102A10004FF48070009000208DF804000C208DF899
:102A2000050001208DF806006846FDF785FD1CBDF8
:102A30001CB508210120FDF775FF4FF48070009050
:102A400000208DF804000C208DF8050000208DF882
:102A500006006846FDF770FD1CBD49480078012856
:102A60000CD148480088002803DC474800884549C5
:102A7000088044480088401E42490880704710B5CD
:102A800002460023414C237000200BE052F8203016
:102A900003EB03134FF47A7463433D4C44F8203046
:102AA000431CD8B28842F1DB2E4B197010BD10B513
:102AB000274800683230264908602A48007868B301
:102AC00033483249097850F82100322816D80020BE
:102AD0002F492E4A127841F8220022480078401EE1
:102AE0002A490978884203D100201E49087054E021
:102AF00026480078401C254908704EE024482349A8
:102B0000097850F82100322847D921481F4909780F
:102B100050F8210032381E491C4A3BE03DE00000DD
:102B200079000020803700202A0000205E0000206D
:102B300028000020640000206000002065000020C4
:102B40005F0000206800002069000020660000206F
:102B50003800002036000020340000203300002020
:102B6000320000206C00002050000020780000207F
:102B70001640C800290000202B0000202C00002057
:102B80002D0000202E000020300000206B000020CF
:102B9000C0250020127841F822002448006824490A
:102BA000884242D123480088401C224908800020E6
:102BB0001E4908601F480088B0F5616F27D11D4885
:102BC00000884FF4616190FBF1F01B4909780844DB
:102BD00019490870174800884FF4616190FBF1F2C1
:102BE00001FB12001349088013480078182190FB5C
:102BF000F1F0124909780844104908700E4800782D
:102C0000182190FBF1F201FB12000B4908700C48EF
:102C1000007800F02DFC0A490978481C00EBD071BF
:102C20004910A0EB4101064A117010BD3800002088
:102C300040420F0036000020340000203300002006
:102C40003200002070B5044649488078207000208A
:102C5000E0744748C078012801D1607008E0444919
:102C6000487905F092FD60706078012800D170BD50
:102C70006078102801DD0120F9E73D480079A07057
:102C8000022509E03A494879294605F084FD691E84
:102C9000A21C5054681CC5B26078A842F2DA607871
:102CA000012802DDE078A07401E0A078A07420780B
:102CB0000B2802D020780F2809D12D488079207563
:102CC0002B48C1796175017AA175417AE175207847
:102CD0000F280CD12648817A2176C17A6176017B52
:102CE000A176417BE176817B2177C17B61770020F2
:102CF000BDE70146002007E08A1C125C8B7C9A42EB
:102D000000D104E0421CD0B24A788242F4DC00BF19
:102D1000704710B5C27C32B990F87A40CA1C00F1F5
:102D200014039C540CE0C27C012A09D190F87A303B
:102D30004278521C44782244541A00F1140213556C
:102D400010BDC27C22B9821C4B1CD25C827406E08E
:102D5000C27C012A03D14A1E831C9A5C827470478C
:102D60000121C1744178891E821C515C81747047B5
:102D70000027002010B500F099FB00F0BBF800F030
:102D80003DF900F09BFA00F033FB00F04BFD00F042
:102D9000CDFE00F00AFF4FF4FA7000F00BF800BF10
:102DA00000F051F80028FBD100F08CF800F0FCF89E
:102DB00010BD00004FF4E161B0FBF1F1494A116030
:102DC0004FF4E161B0FBF1F201FB1201464A1160E0
:102DD0004449096831B942F2283141434FF0E022B9
:102DE000516103E041494FF0E022516100214FF071
:102DF000E02291610121116170473D49B0FBF1F181
:102E0000384A11603A49B0FBF1F201FB1201364A2F
:102E100011603449096851B942F2283141434FF4F5
:102E20007A72B1FBF2F14FF0E022516104E043F617
:102E300048714FF0E022516100214FF0E022916192
:102E40000121116170474FF0E020016901F001009C
:102E500020B101F4803008B9012070472148006892
:102E6000012811D900204FF0E022106190611F4825
:102E7000506100209061012010611A480068401ED6
:102E8000184A10600120E8E716480068012817D1A9
:102E900000204FF0E022106190611348006842F278
:102EA000283250434FF0E022506100209061012011
:102EB00010610C480068401E0A4A10600120CCE7EF
:102EC0000020CAE700204FF0E021086188617047C8
:102ED00001B502E00098401E009000980028F9D14A
:102EE00008BD000070000020740000204031F70091
:102EF00040771B001FB501210920FDF7B9FE012114
:102F00001120FDF7B5FE4FF40070ADF80C00102055
:102F10008DF80F0001208DF80E0003A93548FDF74C
:102F2000EBFB4FF48060ADF80C0003A93248FDF7CD
:102F3000E3FB4FF48070ADF80C0048208DF80F00D3
:102F400003A92C48FDF7D8FB4FF400712948FDF781
:102F500080FC4FF480612848FDF77DFC08210120AA
:102F6000FDF7E0FC4FF48070009000208DF8040025
:102F70000C208DF8050001208DF806006846FDF74D
:102F8000DBFA4FF4C060FDF751FA17208DF8080006
:102F900000208DF809008DF80A0001208DF80B0043
:102FA00002A8FDF748FA1FBD10B54FF40071114893
:102FB000FDF751FC4FF43470FFF78AFF4FF40071B6
:102FC0000C48FDF746FC4FF43470FFF781FF10BD4D
:102FD00010B54FF480610848FDF73BFC4820FFF72F
:102FE00077FF4FF480610448FDF735FC4820FFF778
:102FF0006FFF10BD000C01400010014000B587B00C
:1030000001210820FDF734FE01218803FDF73DFE74
:103010004FF40050ADF8040001208DF80600182090
:103020008DF8070001A95948FDF766FB4FF4804071
:10303000ADF8040001A95548FDF75EFB4FF40040D0
:10304000ADF8040001A95148FDF756FB4FF480503C
:10305000ADF8040010208DF8070001A94B48FDF7DA
:103060004BFB4FF480514948FDF7F3FB0020ADF8CE
:1030700008004FF48270ADF80A000020ADF80C0093
:103080000220ADF80E000120ADF810004002ADF8AE
:1030900012002020ADF814000020ADF81600072023
:1030A000ADF8180002A93A48FDF76CFE0121384836
:1030B000FDF70DFF07B000BD10B5044600BF0221AB
:1030C0003348FDF788FF0028F9D021463048FDF746
:1030D0002FFF00BF01212E48FDF77DFF0028F9D00A
:1030E0002B48FDF727FFC0B210BD2DE9F04704467D
:1030F000002500260027A846A9464FF48051234802
:10310000FDF7A9FB04F07F00FFF7D6FFFF20FFF7D4
:10311000D3FF8046FF20FFF7CFFF0746FF20FFF7D2
:10312000CBFF0646FF20FFF7C7FF05464FF480514F
:103130001648FDF78EFB4FEA086040EA074040EA78
:10314000062040EA05094846BDE8F08770B5054607
:103150000C464FF480510D48FDF77DFB45F0800093
:10316000FFF7AAFF200EFFF7A7FFC4F30740FFF702
:10317000A3FFC4F30720FFF79FFFE0B2FFF79CFF18
:103180004FF480510148FDF764FB70BD000C014015
:103190000038004070B586B006460C461546012141
:1031A00044F20400FDF764FD4FF40070ADF8140024
:1031B00018208DF8170003208DF8160005A93D484A
:1031C000FDF79AFA4FF48060ADF8140004208DF8F2
:1031D000170005A93748FDF78FFA26B1012E06D052
:1031E000022E0CD107E04FF49660019008E04FF4F6
:1031F0001660019004E04FF49650019000E000BF8B
:1032000000BF012C03D10020ADF8080003E04FF40B
:103210008050ADF8080025B1012D06D0022D0ED149
:1032200008E00020ADF80C000AE04FF48060ADF833
:103230000C0005E04FF4C060ADF80C0000E000BFEA
:1032400000BF0020ADF80A00ADF810000C20ADF86A
:103250000E0001A91848FEF746FE012240F2255152
:103260001548FEF7D8FE01211348FEF7C8FE4FF4BB
:10327000E060FDF7DBF825208DF8000000208DF8D8
:10328000010001208DF802008DF803006846FDF76B
:10329000D2F806B070BD10B5044621460648FEF7C8
:1032A0001BFF00BF40210448FEF784FF0028F9D02F
:1032B00010BD0000000801400038014008B50121A0
:1032C0001120FDF7D5FC4FF40070ADF80000102080
:1032D0008DF8030001208DF8020069464348FDF790
:1032E0000BFA0120ADF8000069464048FDF704FAEA
:1032F0000220ADF8000069463C48FDF7FDF90820C2
:10330000ADF8000069463948FDF7F6F90420ADF83C
:10331000000048208DF8030069463448FDF7ECF9B9
:103320004FF400713148FDF794FA01212F48FDF761
:1033300090FA02212D48FDF78CFA08212B48FDF761
:1033400088FA08BD2DE9F04104460025002721E058
:1033500002212648FDF77FFA04F0800020B1082101
:103360002248FDF776FA03E008212048FDF773FABA
:103370006006040E02211D48FDF76BFA04211B486C
:10338000FDF74DFA06466806050E0EB1681CC5B27B
:10339000781CC7B2082FDBDB2846BDE8F08170B58A
:1033A000044601211148FDF756FA44F08000FFF76A
:1033B000C9FFFF20FFF7C6FF054601210B48FDF7B7
:1033C00048FA284670BD70B504460D4601210748ED
:1033D000FDF741FA04F07F00FFF7B4FF2846FFF73E
:1033E000B1FF01210148FDF734FA70BD0010014022
:1033F00008B501211120FDF73BFC2020ADF80000AD
:1034000010208DF8030002208DF80200694625483F
:10341000FDF772F920212348FDF71BFA1020ADF8C3
:10342000000048208DF8030069461E48FDF764F946
:1034300000201D49087010211A48FDF7F0F900F02E
:10344000010018B901201849087008BD1020ADF816
:1034500000008DF8030002208DF802006946114833
:10346000FDF74AF910210F48FDF7F3F900BFECE72B
:1034700010B5044624B120210A48FDF7ECF903E019
:1034800020210848FDF7E5F910BD10B5044624B128
:1034900010210448FDF7DFF903E010210148FDF792
:1034A000D8F910BD001001407800002000B587B0A9
:1034B00001210420FDF7DCFB01210803FDF7D8FB07
:1034C0002020ADF8040003208DF8060018208DF8A8
:1034D000070001A9D148FDF70FF94020ADF804001D
:1034E00001A9CE48FDF708F98020ADF8040001A934
:1034F000CA48FDF701F91020ADF804008DF8070067
:1035000001A9C648FDF7F8F81021C448FDF7A1F954
:103510000020ADF808004FF48270ADF80A000020DA
:10352000ADF80C000220ADF80E000120ADF810003F
:103530004002ADF812000820ADF814000020ADF8EC
:1035400016000720ADF8180002A9B548FDF71AFCCF
:103550000121B348FDF7BBFC07B000BD10B5044620
:1035600000BF0221AE48FDF736FD0028F9D0214604
:10357000AB48FDF7DDFC00BF0121A948FDF72BFD9D
:103580000028F9D0A648FDF7D5FCC0B210BD10B593
:103590001021A248FDF75FF90620FFF7DFFF102199
:1035A0009E48FDF756F910BD10B510219B48FDF758
:1035B00052F90520FFF7D2FF00BFFF20FFF7CEFF33
:1035C000044604F001000028F7D110219348FDF7CC
:1035D00040F910BD2DE9F041002400250026002708
:1035E00010218E48FDF737F99F20FFF7B7FFFF2026
:1035F000FFF7B4FF0646FF20FFF7B0FF0546FF20A8
:10360000FFF7ACFF044610218448FDF722F930048F
:1036100040EA052040EA04073846BDE8F08110B5CD
:103620000446FFF7B4FFFFF7BFFF10217B48FDF70B
:1036300012F92020FFF792FFC4F30740FFF78EFF37
:10364000C4F30720FFF78AFFE0B2FFF787FF1021DE
:103650007248FDF7FEF8FFF7A7FF10BD70B50546ED
:103660000C461646FFF793FF10216C48FDF7F3F860
:103670000220FFF773FFC4F30740FFF76FFFC4F3A7
:103680000720FFF76BFFE0B2FFF768FFB6F5807F1A
:1036900001DD4FF4807603E02878FFF75FFF6D1CB3
:1036A000301EA6F101018EB2F6D110215B48FDF764
:1036B000D0F8FFF779FF70BD2DE9F05F07460E46A1
:1036C000144606F0FF0ACAF10000C5B22046E11711
:1036D00004EB1161C1F30728E11704EB1161091232
:1036E000A4EB012101F0FF09BAF1000F20D1B8F1DC
:1036F000000F05D1224631463846FFF7AFFF64E0A0
:1037000009E04FF4807231463846FFF7A7FF06F50F
:10371000807607F58077B8F10000A8F1010101F08B
:10372000FF08EED14A4631463846FFF797FF4CE096
:10373000B8F1000F18D1A94510DDA9EB050000F084
:10374000FF0B2A4631463846FFF788FF2E442F44A8
:103750005A4631463846FFF781FF36E02246314669
:103760003846FFF77BFF30E0601B84B22046E1174C
:1037700004EB1161C1F30728E11704EB1161091291
:10378000A4EB012101F0FF092A4631463846FFF734
:1037900065FF2E442F4409E04FF4807231463846CD
:1037A000FFF75CFF06F5807607F58077B8F100003B
:1037B000A8F1010101F0FF08EED1B9F1000F04D02A
:1037C0004A4631463846FFF749FFBDE8F09F70B5DD
:1037D00005460C46164610211048FDF73CF803201C
:1037E000FFF7BCFEC4F30740FFF7B8FEC4F30720A1
:1037F000FFF7B4FEE0B2FFF7B1FE04E0FF20FFF7F1
:10380000ADFE28706D1C301EA6F101018EB2F5D1FF
:1038100010210248FDF71DF870BD000000080140AE
:103820000030014008B501210920FDF721FA4FF4CD
:103830004060ADF8000014208DF8030001208DF8E1
:1038400002006946B848FCF757FF4FF48061B6485C
:10385000FCF7FFFF4FF40061B348FCF7FAFF08BD27
:1038600000BF00BF00BF00BF00BF00BF00BF00BF60
:1038700000BF00BF00BF00BF00BF00BF00BF00BF50
:10388000704710B54FF40061A748FCF7E4FFFFF75D
:10389000E7FF4FF48061A448FCF7DBFFFFF7E0FF90
:1038A0004FF40061A048FCF7D4FFFFF7D9FF10BD2B
:1038B00010B500244FF400619B48FCF7CAFFFFF7E6
:1038C000CFFF4FF480619848FCF7C3FFFFF7C8FFB4
:1038D0004FF400619448FCF7A2FF012800D100E0FA
:1038E000002004464FF480618F48FCF7B4FFFFF7D7
:1038F000B7FF204610BD70B50446002521E004F056
:10390000800028B14FF400618748FCF7A2FF04E073
:103910004FF400618448FCF79EFFFFF7A1FF4FF4CE
:1039200080618148FCF795FFFFF79AFF4FF48061B3
:103930007D48FCF790FFFFF793FF6006040E681CBC
:10394000C5B2082DDBDB70BD10B54FF400617648C1
:10395000FCF781FFFFF784FF4FF480617248FCF7AA
:103960007AFFFFF77DFF10BD70B504460D46FFF7E7
:10397000EBFF6420FFF7BFFFFFF79AFF18B1FFF7D7
:1039800080FF012070BDF02101EA0410FFF7B3FFB2
:10399000FFF78EFF18B1FFF774FF0120F2E728460A
:1039A000FFF7A9FFFFF784FF18B1FFF76AFF0120B7
:1039B000E8E7FFF766FF0020E4E710B54FF4006189
:1039C0005948FCF746FFFFF74BFF4FF4806156481C
:1039D000FCF73FFFFFF744FF4FF480615248FCF7CC
:1039E0003AFFFFF73DFF10BD70B500244FF40061B2
:1039F0004D48FCF72EFFFFF733FF00251DE04FF485
:103A000080614948FCF725FFFFF72AFF6006040E96
:103A10004FF400614448FCF702FF012802D144F052
:103A2000010401E024F001044FF480613E48FCF7FA
:103A300012FFFFF715FF681CC5B2082DDFDB20461B
:103A400070BD10B54FF400613748FCF704FFFFF775
:103A500007FF4FF480613448FCF7FBFEFFF700FFDF
:103A60004FF480613048FCF7F6FEFFF7F9FE10BD19
:103A700010B54FF400612C48FCF7EBFEFFF7F0FEA9
:103A80004FF480612848FCF7E4FEFFF7E9FE4FF4AD
:103A900000612548FCF7DFFEFFF7E2FE4FF480618E
:103AA0002148FCF7D8FEFFF7DBFE10BD2DE9F04101
:103AB00007460C461646FFF747FF6420FFF71BFF3B
:103AC000FFF7F6FE20B1FFF7DCFE0120BDE8F08134
:103AD0003846FFF710FFFFF7EBFE18B1FFF7D1FEF6
:103AE0000120F3E7FFF7C4FF6520FFF704FFFFF7AE
:103AF000DFFE18B1FFF7C5FE0120E7E7002507E06C
:103B0000FFF772FF2070641CFFF79BFF681CC5B2B3
:103B1000701EA842F4DCFFF767FF2070FFF74DFF2F
:103B2000FFF7AFFE0020D1E7000C01401FB50121D7
:103B30000220FDF7AAF840F2CF70ADF8080048F671
:103B40009F40ADF804000020ADF80A00ADF8060073
:103B500001A93448FDF74AFB01213248FEF768F914
:103B6000012211462F48FDF7B8FE01212D48FDF72F
:103B700099FE00210220FDF788F84FF4E060FCF781
:103B800055FC1D208DF8000000208DF80100032059
:103B90008DF8020001208DF803006846FCF74BFC0D
:103BA00001210220FDF771F81FBD1FB5012104207E
:103BB000FDF76BF83120ADF808004720ADF80400A0
:103BC0000020ADF80A00ADF8060001A91648FDF77F
:103BD0000DFB01211448FEF72BF901221146124872
:103BE000FDF77BFE01211048FDF75CFE002104205B
:103BF000FDF74BF84FF4E060FCF718FC1E208DF841
:103C0000000000208DF8010002208DF80200012044
:103C10008DF803006846FCF70EFC01210420FDF737
:103C200034F81FBD000400400008004010B5FE49F4
:103C30000120FFF78BFAFD490120FFF787FAFC49C5
:103C40000120FFF783FAFB490120FFF77FFAFA49C9
:103C50000120FFF77BFAF9490120FFF777FAF849CD
:103C60000120FFF773FAF7490120FFF76FFAF649D1
:103C70000120FFF76BFAF5490120FFF767FAF449D5
:103C80000120FFF763FAF3490120FFF75FFAF249D9
:103C90000120FFF75BFAF1490120FFF757FAF049DD
:103CA0000120FFF753FAEF490120FFF74FFAEE49E1
:103CB0000120FFF74BFAED490120FFF747FAEC49E5
:103CC0000120FFF743FAEB490120FFF73FFAEA49E9
:103CD0000120FFF73BFAE9490120FFF737FAE849ED
:103CE0000120FFF733FAE7490120FFF72FFAE649F1
:103CF0000120FFF72BFAE5490120FFF727FAE449F5
:103D00000120FFF723FAE3490120FFF71FFAE249F8
:103D10000120FFF71BFAE1490120FFF717FAE049FC
:103D20000120FFF713FADF490120FFF70FFADE4900
:103D30000120FFF70BFADD490120FFF707FADC4904
:103D40000120FFF703FADB490120FFF7FFF9DA4909
:103D50000120FFF7FBF9D9490120FFF7F7F9D8490E
:103D60000120FFF7F3F9D7490120FFF7EFF9D64912
:103D70000120FFF7EBF9D5490120FFF7E7F9D44916
:103D80000120FFF7E3F9D3490120FFF7DFF9D2491A
:103D90000120FFF7DBF9D1490120FFF7D7F9D0491E
:103DA0000120FFF7D3F9CF490120FFF7CFF9CE4922
:103DB0000120FFF7CBF9CD490120FFF7C7F9CC4926
:103DC0000120FFF7C3F9CB490120FFF7BFF9CA492A
:103DD0000120FFF7BBF9C9490120FFF7B7F9C8492E
:103DE0000120FFF7B3F9C7490120FFF7AFF9C64932
:103DF0000120FFF7ABF9C5490120FFF7A7F9C44936
:103E00000120FFF7A3F9C3490120FFF79FF9C24939
:103E10000120FFF79BF9C1490120FFF797F9C0493D
:103E20000120FFF793F9BF490120FFF78FF9BE4941
:103E30000320FFF78BF9BD490320FFF787F9BC4941
:103E40000320FFF783F9BB490320FFF77FF9BA4945
:103E50000320FFF77BF9B9490320FFF777F9B84949
:103E60000320FFF773F9B7490320FFF76FF9B6494D
:103E70000320FFF76BF9B5490320FFF767F9AA495B
:103E80000520FFF763F9A9490520FFF75FF9A84965
:103E90000520FFF75BF9A7490520FFF757F9A64969
:103EA0000520FFF753F9A5490520FFF74FF9A4496D
:103EB0000520FFF74BF9A3490520FFF747F9A24971
:103EC0000520FFF743F9A1490520FFF73FF9A04975
:103ED0000920FFF73BF99F490E20FFF737F99E496C
:103EE0001020FFF733F910BD2DE9F84F05460E46B7
:103EF00017461C46DDF8288029460A20FFF726F9D8
:103F000006F00F01384661F31F104FEA00294946B9
:103F10000B20FFF71BF9A0B240F0804A51460C205D
:103F2000FFF714F94FF0804040EA144B59460D203A
:103F3000FFF70CF910210F20FFF708F94FEA0840AE
:103F4000009016200099FFF701F9BDE8F88F10B531
:103F500082491620FFF7FAF810BD10B580490020FD
:103F6000FFF7F4F80020FFF7C0F804467C488442CD
:103F700001D1002010BD0120FCE72DE9F0410546EC
:103F80000E46AF7C032F02D10120BDE8F0810B204B
:103F9000FFF7ABF8044604F4704007F00F0140EA65
:103FA000012421460B20FFF7D1F808210F20FFF74D
:103FB000CDF83046FEF7FEFE00BFFEF744FF18B115
:103FC000684800780028F8D0FEF77CFF04F47040C1
:103FD00040F4407421460B20FFF7B8F861480078A0
:103FE00008B90120D1E700205E49087000BFCCE786
:103FF0002DE9F04104460E46032C02D10120BDE814
:10400000F0810B20FFF771F8054605F4704004F0CD
:104010000F0140EA012529460B20FFF797F80821F8
:104020000F20FFF793F89FE000FBF7CE65173EC522
:10403000E6DC843507FA77323C144AD494CD7C040C
:1040400031DDA02D1618ACD1ED10CDCEC930C11583
:10405000B834DCF14EDD79D758CCB51760F9FA38B1
:10406000EA003237A0F00F342FC80206C3D81ADF97
:104070002F357BEBD035FEE304F68EC95AE735D3F6
:10408000BFE10AD6CE096EC90829A2E501CE0EFC11
:1040900090C569F364392211EA317D1351056BC56E
:1040A0006E10F1C9ECD15A216CD0311207327DEC7F
:1040B0007A1BCD2AB1F72836AC280BDD72FDBBC1C7
:1040C000ACC8F503040A8E2E7238150B4937A1F1DE
:1040D000332CCC24B5F4D6320ACD38F436CB39EAB9
:1040E000F2CC58F216FADFC4FD25D9DE1317863458
:1040F00049187C3281341809A936D60062316EF92C
:10410000FE34F1F6A63615F33832C7F31332CE1467
:10411000EE32DF0A9D0EF6CA8CFE75C8B633B000CB
:10412000971F162D5BD35B22DCFF90FFF900AC01DB
:104130000AFD0FFC5507F10766ED69F0577073270C
:1041400091F726F90A6ACA24DEF73FFB4C6B8C21F3
:10415000AA026A0270080FF20000620C00000180DF
:10416000AA55AA552B0000203046FEF746FE0AE06D
:104170009048007838B100208E490870FEF7E2F8C8
:104180000746FEF739FCFEF75EFE18B18A48007854
:104190000028EDD0FEF796FE05F4704040F440751F
:1041A00029460B20FEF7D2FF8348007808B901208A
:1041B00025E700208049087000BF20E72DE9F04F77
:1041C000A3B005460E461120FEF78FFF0190012196
:1041D0000198B1EBD07F03D004210F20FEF7B6FF8A
:1041E00028788DF80C00E87C30B99DF80C0000F0C0
:1041F0007F008DF80C0005E09DF80C0040F0800079
:104200008DF80C0068788DF80D00A87C8DF80E00F4
:10421000002406E0A81C015DE01C03AA1154601CE8
:10422000C4B26878A042F5DC6878C01CC7B200242C
:1042300007E005F11400005D391903AA5054601C11
:10424000C4B2642CF5DB00241DE003A911F824B0EE
:10425000A000401C11F800A0A000801C11F80090E4
:10426000A000C01C11F800804FEA0B6040EA0A4031
:1042700040EA092040EA0800029012200299FEF765
:1042800065FF601CC4B2192CDFDB08210F20FEF78C
:104290005DFF3046FEF78EFD0AE04648007838B1F3
:1042A000002044490870FEF74DF80090FEF79DFB92
:1042B000FEF7C9FD18B1414800780028EDD0FEF79F
:1042C00001FE04210F20FEF741FF3C48007818B999
:1042D000012023B0BDE8F08F00203849087000BFEE
:1042E000F7E72DE9F041A0B005461120FEF7FDFEED
:1042F000804608F03F001B2807D002210F20FEF760
:1043000025FF012020B0BDE8F081002419E0132032
:10431000FEF7EBFE0646300E0DF82400C6F307410B
:10432000A000401C0DF80010C6F30721A000801C5F
:104330000DF80010F1B2A000C01C0DF80010601CB8
:10434000C4B21A2CE3DB9DF8000028709DF8000031
:10435000C009E8749DF8010068709DF80200A87417
:10436000002406E0E01C1DF80010A81C0155601C8C
:10437000C4B26878A042F5DC6878C01CC7B20024DB
:1043800007E038191DF8001005F114000155601CF4
:10439000C4B2642CF5DB1320FEF7A7FE0646300CF2
:1043A00085F87800A5F87A6002210F20FEF7CEFE8E
:1043B0000020A7E7280000202B0000202900002073
:1043C000002069490870694908706949087069499D
:1043D0000870704710B504462046FEF7EBFC00BF9E
:1043E000FEF731FD18B1614800780028F8D0FEF7DB
:1043F00069FD5E48007818B9FFF7E2FF002010BDA4
:104400005B480078FBE710B5024658480078012861
:1044100000D110BDFE2A03D15648007800B9F8E754
:10442000682A08D15348007828B901204E490870FD
:1044300000204F4908704F480078012807D10AB181
:10444000802A02DDFFF7BCFFE3E7494802704A48D3
:1044500048490978425447480078454909788842D4
:104460001BDD43480078C0B10024002306E0581C3F
:104470004149085C2044C4B2581CC3B23C4800788F
:104480008342F4DB944204D0FE2A02D0FFF798FF67
:10449000BFE701203549087004E036480078401C29
:1044A0003449087000BFB4E700B502462F480078D1
:1044B000012800D100BDFE2A07D12E48007820B97E
:1044C0002E480078012800D1F4E7682A03D02C4850
:1044D0000078012808D12748007828B9012022490E
:1044E0000870002022490870224800782549097880
:1044F00088420DD10AB1802A02DDFFF761FFD9E7BA
:10450000214800782149097801FB02001849087008
:10451000194818490978425415480078401E154931
:104520000978884206DC1248007818B101200F494A
:10453000087004E00F480078401C0E49087000BF66
:10454000B8E770B506460C460CB1802C00DD70BD96
:10455000002504E0705DFEF79EFE681CC5B2A54212
:10456000F8DB00BFF3E70000790000207A000020AC
:104570007C0000207B000020002700207D00002020
:104580007E0000207F0000208100002080000020AD
:104590002DE9F04107460D462E46234800EA8616CF
:1045A00000240AE006EB0428204901EB04204FF424
:1045B00080724146FFF70BF9641C102CF2DB304689
:1045C000FFF72DF82E4640F6FF7000EA861600240D
:1045D00004E0385D3119154A5054641C402CF8DB56
:1045E0002E46114800EA861600240AE006EB04284D
:1045F0000E4901EB04204FF480724146FFF75CF84E
:10460000641C102CF2DBBDE8F08170B506460C4648
:1046100025466FF03F0000EA8515402229463046C6
:10462000FFF7D5F870BD000000F0FFFF80270020E5
:1046300010B5044621780620FFF796F9641C21780E
:104640000520FFF791F9641C21780420FFF78CF90D
:10465000641C21780320FFF787F9641C217802206D
:10466000FFF782F9641C21780120FFF77DF9641CB3
:1046700021780020FFF778F910BD7CB505460722A8
:1046800069460020FFF712FA002407E0C4F1060093
:104690001DF8000028706D1C601CC4B2072CF5DBEF
:1046A0007CBD000030B591B0002101A8FFF7ADFF3F
:1046B000FE48007801280CD1002404E0002001A964
:1046C0000855601CC4B23F2CF8DB002101A8FFF79D
:1046D0005FFF0020F6490880488008714871F5485E
:1046E0008860C860022008740121F14841740021EB
:1046F00081740320EE49C8740875EF4888614FF44F
:10470000FA7088831420C88300200884012081F86F
:1047100022000021E64880F823104FF4C8718184FC
:10472000092180F82610012180F8271080F8281030
:10473000002180F829100C2180F82A10012437E08C
:10474000002104EB8402DA48223000F8121004EB56
:10475000840200EB4200417004EB8402D448223012
:1047600000EB4200418004EB8402D148223000EB90
:104770004200017104EB8402CD48223000EB42007C
:10478000417104EB8402CA48223000EB420081717F
:1047900004EB8402C648223000EB4200C17104EBF6
:1047A0008402C348223000EB42000172601CC4B294
:1047B000082CC5DB9DF807009DF8061040EA012093
:1047C000BB49488008464088C0F3803010B19DF84E
:1047D00008000871B6484088C0F3403018B19DF811
:1047E0000900B3494871B2484088C0F3003078B13D
:1047F0009DF80A0001069DF80B0041EA00419DF872
:104800000C0041EA00209DF80D100843A84988607B
:10481000A7484088C0F3C02078B19DF80E0001067B
:104820009DF80F0041EA00419DF8100041EA002088
:104830009DF8111008439E49C8609D484088C0F308
:10484000802080B19DF812000009994908749DF8F4
:104850001200C0F3C001964841749DF8120000F0A8
:1048600003019348817492484088C0F3402048B1C6
:104870009DF8130000098E49C8749DF8130000F0DC
:104880000F0008758A484088C0F3002078B19DF871
:10489000140001069DF8150041EA00419DF816003C
:1048A00041EA00209DF8171008438149886180483B
:1048B0008078C0F3C01048B19DF8180000F00F01D7
:1048C0009DF8190061F31F20794988837848807822
:1048D000C0F3801048B19DF81A0000F00F019DF858
:1048E0001B0061F31F207249C88371488078C0F3B0
:1048F000401038B19DF81C009DF81D1060F31F2179
:104900006B4801846A488078C0F3C000002876D0E4
:104910006748807800F0070500246EE0012104EB71
:1049200084026348223000F812101A2000EB840041
:1049300001A9085C010904EB84025D48223000EB08
:10494000420041701A2000EB840001A9085C00F0CD
:104950000F011B2000EB840001AA105C61F31F20F3
:1049600004EB84025249223101EB420148801C20B1
:1049700000EB840001A9085C010904EB84024C48A7
:10498000223000EB420001711C2000EB840001A9E1
:10499000085C00F00F0104EB84024548223000EB74
:1049A000420041711D2000EB840001A9085CC1098F
:1049B00004EB84023E48223000EB420081711D204E
:1049C00000EB840001A9085CC0F3801104EB8402B1
:1049D0003748223000EB4200C1711D2000EB8400FB
:1049E00001A9085C00F03F0104EB8402304822304A
:1049F00000EB42000172601CC4B2AC428EDD11B00B
:104A000030BD2DE9F04790B000216846FFF7FDFD6D
:104A10002A48C078001DC5B22849681C085C495D59
:104A200040EA01272549E81C085C0A46A91C515C9C
:104A300040EA01269DF803009DF8021040EA012893
:104A4000002F7DD0002E7BD1C7F3803020B11146DE
:104A5000281D085C16490871C7F3403020B117497A
:104A6000681D085C12494871C7F3003098B11349BA
:104A7000A81D085C0106114AE81D105C41EA0041CE
:104A800005F10800105C41EA002005F10901515CC4
:104A9000084307498860C7F3C02008B3074905F1F8
:104AA0000A00085C0106054A0AE0000078000020C0
:104AB0008037002066666616FF1701000027002079
:104AC00005F10B00105C41EA004105F10C00105C9F
:104AD00041EA002005F10D01515C0843FE49C86020
:104AE000C7F38020B0B1FD4905F10E00085C000954
:104AF000F9490874F94905F10E00085CC0F3C001DA
:104B0000F5484174F54905F10E00085C00F0030119
:104B1000F1488174C7F3402070B1F04905F10F00EE
:104B2000085C0009EC49C874EC4905F10F00085C09
:104B300000F00F00E8490875C7F30020B8B100E0A5
:104B4000C8E0E64905F11000085C0106E34A05F1FA
:104B50001100105C41EA004105F11200105C41EACD
:104B6000002005F11301515C0843DB498861C7F35C
:104B7000C01068B1D94905F11400085C00F00F01BC
:104B8000D64A05F11500105C61F31F20D2498883D5
:104B9000C7F3801068B1D14905F11600085C00F038
:104BA0000F01CE4A05F11700105C61F31F20CA49BE
:104BB000C883C7F3401058B1C84905F11800085C14
:104BC0000A4605F11901515C60F31F21C2480184B6
:104BD000C7F3C00000287DD0002437E0002104EB9B
:104BE0008402BD48223000F8121004EB840200EB6E
:104BF0004200417004EB8402B748223000EB4200CF
:104C0000418004EB8402B448223000EB4200017181
:104C100004EB8402B048223000EB4200417104EB07
:104C20008402AD48223000EB4200817104EB840223
:104C3000A948223000EB4200C17104EB8402A6486F
:104C4000223000EB42000172601CC4B2082CC5DBAC
:104C500007F00709002470E0012104EB84029E485C
:104C6000223000F8121005EB84001A309B49085CD2
:104C7000010904EB84029848223000EB42004170A5
:104C800005EB84001A309549085C00F00F0105EB34
:104C900084001B30914A105C61F31F2004EB8402F6
:104CA0008D49223101EB4201488005EB84001C3024
:104CB0008A49085C010904EB84028748223000EB32
:104CC0004200017105EB84001C308449085C00F04F
:104CD0000F0100E033E004EB84027F48223000EB58
:104CE0004200417105EB84001D307C49085CC1091C
:104CF00004EB84027848223000EB4200817105EB1E
:104D000084001D307549085CC0F3801104EB8402F7
:104D10007148223000EB4200C17105EB84001D3068
:104D20006E49085C00F03F0104EB84026A482230BF
:104D300000EB42000172601CC4B24C458CDD002FB8
:104D40007ED1002E7CD0C6F3C000002851D047F69B
:104D5000F07008EA000848EA0608002416E000207F
:104D60001A2101EB84010DF801001B2101EB8401E4
:104D70000DF801001C2101EB84010DF801001D213B
:104D800001EB84010DF80100601CC4B2082CE6DBC5
:104D900006F00709002429E005EB84001A304F498A
:104DA000085C1A2101EB84010DF8010005EB840079
:104DB0001B304A49085C1B2101EB84010DF80100FE
:104DC00005EB84001C304549085C1C2101EB840183
:104DD0000DF8010005EB84001D304049085C1D21E1
:104DE00001EB84010DF80100601CC4B24C45D3DD19
:104DF00004E047F6F070064048EA060800208DF807
:104E000000008DF801004FEA18208DF8020008F02C
:104E1000FF008DF80300C6F3803020B12F49281D14
:104E2000085C8DF80400C6F3403020B12B49681DA2
:104E3000085C8DF80500C6F3003068B1002409E075
:104E400073E0A81D20442549095CA01D0DF8001041
:104E5000601CC4B2042CF4DBC6F3C02070B1002483
:104E60000AE005F10A0020441C49095C04F10A002B
:104E70000DF80010601CC4B2042CF2DBC6F38020D5
:104E800028B1164905F10E00085C8DF80E00C6F336
:104E9000402028B1114905F10F00085C8DF80F0082
:104EA000C6F3002070B100240AE005F11000204490
:104EB0000A49095C04F110000DF80010601CC4B22E
:104EC000042CF2DBC6F3C01078B1044905F11400DC
:104ED000085C8DF8140003E08037002000270020D4
:104EE00005F11500085C8DF81500C6F3801050B16F
:104EF000FE4905F11600085C8DF8160005F1170053
:104F0000085C8DF81700C6F3401050B1F74905F161
:104F10001800085C8DF8180005F11900085C8DF880
:104F2000190000216846FFF733FB6820EF4908703D
:104F30004020487000208870C870022406E01DF8E8
:104F40000410EA4AA01C1154601CC4B23F2CF6DBCA
:104F50004FF0000A002407E0601CE449085C50445C
:104F600000F0FF0A601CC4B2402CF5DBDF4880F87B
:104F700041A04221FFF7E5FA10B0BDE8F0872DE926
:104F8000F047A0B00646002409E07078001D2044D8
:104F9000D649095C06F114000155601CC4B23A2CD4
:104FA000F3DBD348C18B3046FFF708F98046B8F1F0
:104FB000000F03D0012020B0BDE8F0877078401EBC
:104FC0004000CB49C98B00FB01FA0AF1640A0027B3
:104FD0005046FDF7EFFE45E0C6480078012841D174
:104FE00001A8FFF77EF99DF81600C149497988426A
:104FF00035D19DF81700012831D19DF80600BC4934
:10500000497988422BD19DF8040000F07F000628E2
:1050100025D142256820B5490870A81E4870002493
:1050200006E006A8015DA01CB04A1154601CC4B281
:10503000E81EA042F5DC4FF00009002407E0601CE8
:10504000AA49085C484400F0FF09601CC4B2A81ECD
:10505000A042F4DC681EA54901F800900127002059
:10506000A4490870FDF7EFFE08B1002FB4D0FDF79A
:1050700029FF0FB901209EE729469C48FFF761FAF6
:10508000002098E72DE9F041A0B005462846FDF73D
:1050900030FE064631462846FDF753FE9448C16867
:1050A0000A20FEF753F89248C18B2846FFF786F88E
:1050B000074647B18E4881680A20FEF747F801206D
:1050C00020B0BDE8F0816878401E801B4000884910
:1050D000C98B00FB01F808F1640800244046FDF785
:1050E00069FE1AE083480078012816D101A8FFF76D
:1050F000F8F89DF816007E49497988420AD19DF852
:105100001700012806D19DF8040000F07F00062852
:1051100000D10124002077490870FDF794FE08B102
:10512000002CDFD0FDF7CEFE714881680A20FEF723
:105130000DF80CB90120C3E701A8FDF7DAFD06461A
:10514000314601A8FDF7FDFD6948C18B01A8FFF7B5
:1051500035F807460FB10120B2E70020B0E72DE98E
:10516000F04790B00546687D297D40EA0127E87D3B
:10517000A97D40EA0126002F7ED0002E7CD1C7F306
:10518000803010B1287E5A490871C7F3403010B101
:10519000687E57494871C7F3003058B1A87E0106B0
:1051A000E87E41EA0041287F41EA0020697F084308
:1051B0004F498860C7F3C02068B1A87F0106E87F27
:1051C00041EA00412020405D41EA00202121495D63
:1051D00008434749C860C7F3802080B12220405D62
:1051E0000009434908742220405DC0F3C0014048D3
:1051F00041742220405D00F003013D488174C7F3F3
:10520000402048B12320405D00093949C87423205B
:10521000405D00F00F000875C7F3002078B124202E
:10522000405D01062520405D41EA00412620405DA9
:1052300041EA00202721495D08432D498861C7F3D1
:10524000C01048B12820405D00F00F012920405DCA
:1052500061F31F2026498883C7F3801048B12A20B4
:10526000405D00F00F012B20405D61F31F202049BD
:10527000C883C7F3401000E089E038B12C20405DBE
:105280002D21495D60F31F2119480184C7F3C00037
:1052900000287CD007F007090024ABE04C4578DCFF
:1052A000012104EB84021248223000F812101A2067
:1052B00000EB840105F11400405C010904EB840259
:1052C0000B48223000EB420041701A2000EB8401B1
:1052D00005F11400405C00F00F011B2000EB84027C
:1052E00005F11400805C61F31F2005E00027002019
:1052F000803700202A00002004EB8402C54901EB1E
:10530000420148801C2000EB840105F11400405C40
:10531000010904EB8402BF4800EB420001711C202C
:1053200000EB840105F11400405C00F00F0104EB78
:105330008402B84800EB420041711D2000EB84015B
:1053400005F11400405CC10904EB8402B14800EB94
:10535000420081711D2000EB840105F11400405CC6
:10536000C0F3801104EB8402AA4800EB4200C17133
:105370001D2000EB840105F11400405C00F03F01AA
:1053800004EB8402A34800EB4200017230E034E0F9
:10539000FFE7002104EB84029E4800F8121004EBA2
:1053A000840200EB4200417004EB8402994800EB58
:1053B0004200418004EB8402964800EB42000171F8
:1053C00004EB8402934800EB4200417104EB840239
:1053D000904800EB4200817104EB84028D4800EBA1
:1053E0004200C17104EB84028A4800EB4200017262
:1053F000601CC4B2082CFFF651AF00216846FFF7CD
:1054000004F9002F7ED1002E7CD09DF803009DF87A
:10541000021040EA0128C6F3C000002855D047F624
:10542000F07008EA000848EA0608002416E00020A8
:105430001A2101EB84010DF801001B2101EB84010D
:105440000DF801001C2101EB84010DF801001D2164
:1054500001EB84010DF80100601CC4B2082CE6DBEE
:1054600006F0070900242DE01A2000EB840105F165
:105470001400405C1A2101EB84010DF801001B208F
:1054800000EB840105F11400405C1B2101EB840159
:105490000DF801001C2000EB840105F11400405CB4
:1054A0001C2101EB84010DF801001D2000EB84019B
:1054B00005F11400405C1D2101EB84010DF8010091
:1054C000601CC4B24C45CFDD04E047F6F0700640E6
:1054D00048EA060800208DF800008DF801004FEA28
:1054E00018208DF8020008F0FF008DF80300C6F3C5
:1054F000803010B1287E8DF80400C6F3403020B112
:10550000687E00E063E08DF80500C6F3003058B116
:10551000002407E0A01D05F11401095C0DF800103E
:10552000601CC4B2042CF5DBC6F3C02060B10024BB
:1055300008E004F10A0005F11401095C0DF80010FF
:10554000601CC4B2042CF4DBC6F3802018B1222006
:10555000405D8DF80E00C6F3402018B12320405D59
:105560008DF80F00C6F3002060B1002408E004F1BC
:10557000100005F11401095C0DF80010601CC4B2A4
:10558000042CF4DBC6F3C01038B12820405D8DF840
:1055900014002920405D8DF81500C6F3801038B145
:1055A0002A20405D8DF816002B20405D8DF81700F5
:1055B000C6F3401038B12C20405D8DF818002D2026
:1055C000405D8DF8190000216846FEF7E1FF28468E
:1055D000FDF7C6FB0020287500216975022406E04E
:1055E0001DF8041005F114000155601CC4B23F2CD5
:1055F000F6DB08482238C18B2846FEF7DFFD8246DD
:10560000BAF1000F03D0012010B0BDE8F0870020F0
:10561000FAE70000A23700202DE9F047A0B00746C6
:105620007A48C18B3846FEF7C9FD8246BAF1000FB1
:1056300003D0012020B0BDE8F0877878401E4000FC
:105640007249C98B00FB01F900264846FDF7B2FB01
:1056500050E06F48007801284CD101A8FEF741FEC8
:105660009DF8160069494979884240D19DF8170094
:1056700001283CD19DF8060064494979884236D119
:105680009DF8040000F07F00092830D19DF8050046
:10569000401DC5B268205F490870A81E48709DF87B
:1056A000040088709DF80500C870002407E00DF123
:1056B0000600015D201D574A1154601CC4B29DF8BC
:1056C0000500A042F3DC4FF00008002407E0601C56
:1056D0005049085C404400F0FF08601CC4B2A81E9A
:1056E000A042F4DC681E4B4901F80080012600202E
:1056F00047490870FDF7A7FB08B1002EA9D0FDF7B8
:10570000E1FB0EB9012095E729464248FEF719FF53
:1057100000208FE72DE9F041A0B005462846FDF7AF
:10572000E8FA064631462846FDF70BFB3748C168C4
:105730000A20FDF70BFD3548C18B2846FEF73EFDDC
:10574000074647B1314881680A20FDF7FFFC012078
:1057500020B0BDE8F0816878401E801B40002B49D6
:10576000C98B00FB01F800244046FDF723FB1AE03B
:1057700027480078012816D101A8FEF7B2FD9DF850
:1057800016002249497988420AD19DF8170001285C
:1057900006D19DF8040000F07F00092800D1012403
:1057A00000201B490870FDF74EFB08B1002CDFD02C
:1057B000FDF788FB154881680A20FDF7C7FC0CB986
:1057C0000120C5E701A8FDF794FA0646314601A875
:1057D000FDF7B7FA0D48C18B01A8FEF7EFFC0746AD
:1057E0000FB10120B4E70020B2E770B504462046AF
:1057F000FDF7B6FA0548C18B2046FEF7DFFC0546EB
:105800000DB1012070BD0020FCE7000080370020B2
:105810002A0000200027002010B502464FF4C8706F
:10582000002117E001EB8104DD4B03EB44035B78BF
:1058300093420DD101EB8104D94B13F81430012BA5
:1058400006D101EB8104D64B03EB4403588803E0F7
:105850004B1CD9B20829E5DB00BF10BD2DE9F04F84
:10586000A1B004460E466078001DCE49085C207544
:105870006078301A001F607500250AE06078401DCE
:105880002844C8490A5CA81C04F114010A54681C85
:10589000C5B26078301A001FA842EFDCC048223839
:1058A000C18B2046FEF78AFC8046B8F1000F03D07A
:1058B000012021B0BDE8F08F207D00F07F00209016
:1058C000207D4FEAD01B6078401E4000B449223949
:1058D000C98B00FB01FA2098FFF79EFF8244BBF1C1
:1058E000000F03D0AE482238808B82444FF000096D
:1058F0005046FDF75FFA30E0AB48007801282CD124
:1059000001A8FEF7EEFC9DF81600A5492239497959
:1059100088421FD19DF8170001281BD19DF8060071
:105920009F4922394979884214D19DF8040000F03A
:105930007F0008280ED19DF81970002506E0A81CEC
:1059400006A9085C97494855681CC5B2BD42F6DBFC
:105950004FF00109002094490870FDF774FA10B166
:10596000B9F1000FC8D0FDF7ADFAB9F1000F01D1C0
:1059700001209EE739468B48FEF7E3FD002098E7BB
:105980002DE9F047A0B004462046FDF7B2F9824663
:1059900051462046FDF7D5F981482238C1680A20D2
:1059A000FDF7D4FB7E482238C18B2046FEF706FC6B
:1059B00007464FB17A48223881680A20FDF7C6FBB6
:1059C000012020B0BDE8F087207D00F07F08207D19
:1059D0004FEAD0196078401E400071492239C98BC6
:1059E00000FB01F64046FFF717FF0644B9F1000F30
:1059F00003D06B482238808B064400253046FDF7E3
:105A0000D9F91BE068480078012817D101A8FEF7F2
:105A100068FC9DF8160062492239497988420AD10A
:105A20009DF81700012806D19DF8040000F07F00C2
:105A3000082800D1012500205B490870FDF703FA12
:105A400008B1002DDED0FDF73DFA554822388168B7
:105A50000A20FDF77BFB0DB90120B2E701A8FDF795
:105A600048F98246514601A8FDF76BF94C482238A7
:105A7000C18B01A8FEF7A2FB07460FB10120A0E7EA
:105A800000209EE72DE9F05F0546287D00F07F0AA3
:105A9000287D4FEAD01B002439E004EB8401404804
:105AA00000EB4100407850452FD104EB84013C4885
:105AB00010F81100012828D104EB8401384800EBCC
:105AC000410080793949087004EB8401344800EBC7
:105AD0004100C0793649087004EB8401304800EB7E
